{
  "_format": "hh-sol-artifact-1",
  "contractName": "Crowdfunding",
  "sourceName": "contracts/Crowdfunding/Crowdfunding.sol",
  "abi": [
    {
      "inputs": [
        {
          "internalType": "uint256",
          "name": "numberOfDays",
          "type": "uint256"
        },
        {
          "internalType": "uint256",
          "name": "_goal",
          "type": "uint256"
        }
      ],
      "stateMutability": "nonpayable",
      "type": "constructor"
    },
    {
      "inputs": [],
      "name": "claimFounds",
      "outputs": [],
      "stateMutability": "nonpayable",
      "type": "function"
    },
    {
      "inputs": [],
      "name": "getRefund",
      "outputs": [],
      "stateMutability": "nonpayable",
      "type": "function"
    },
    {
      "inputs": [
        {
          "internalType": "uint256",
          "name": "amount",
          "type": "uint256"
        }
      ],
      "name": "pledge",
      "outputs": [],
      "stateMutability": "payable",
      "type": "function"
    },
    {
      "inputs": [
        {
          "internalType": "address",
          "name": "",
          "type": "address"
        }
      ],
      "name": "pledgeOf",
      "outputs": [
        {
          "internalType": "uint256",
          "name": "",
          "type": "uint256"
        }
      ],
      "stateMutability": "view",
      "type": "function"
    }
  ],
  "bytecode": "0x608060405234801561001057600080fd5b506040516106d03803806106d0833981810160405281019061003291906100b5565b336000806101000a81548173ffffffffffffffffffffffffffffffffffffffff021916908373ffffffffffffffffffffffffffffffffffffffff16021790555062015180826100819190610147565b4261008c91906100f1565b6001819055508060028190555050506101f1565b6000815190506100af816101da565b92915050565b600080604083850312156100c857600080fd5b60006100d6858286016100a0565b92505060206100e7858286016100a0565b9150509250929050565b60006100fc826101a1565b9150610107836101a1565b9250827fffffffffffffffffffffffffffffffffffffffffffffffffffffffffffffffff0382111561013c5761013b6101ab565b5b828201905092915050565b6000610152826101a1565b915061015d836101a1565b9250817fffffffffffffffffffffffffffffffffffffffffffffffffffffffffffffffff0483118215151615610196576101956101ab565b5b828202905092915050565b6000819050919050565b7f4e487b7100000000000000000000000000000000000000000000000000000000600052601160045260246000fd5b6101e3816101a1565b81146101ee57600080fd5b50565b6104d0806102006000396000f3fe60806040526004361061003f5760003560e01c80637326c9c014610044578063b2d5ae4414610060578063c383759e14610077578063c5055f2f1461008e575b600080fd5b61005e60048036038101906100599190610358565b6100cb565b005b34801561006c57600080fd5b5061007561013e565b005b34801561008357600080fd5b5061008c61022e565b005b34801561009a57600080fd5b506100b560048036038101906100b0919061032f565b6102ed565b6040516100c29190610390565b60405180910390f35b60015442106100d957600080fd5b8034146100e557600080fd5b80600360003373ffffffffffffffffffffffffffffffffffffffff1673ffffffffffffffffffffffffffffffffffffffff168152602001908152602001600020600082825461013491906103ab565b9250508190555050565b600254471061014c57600080fd5b60015442101561015b57600080fd5b6000600360003373ffffffffffffffffffffffffffffffffffffffff1673ffffffffffffffffffffffffffffffffffffffff1681526020019081526020016000205490506000600360003373ffffffffffffffffffffffffffffffffffffffff1673ffffffffffffffffffffffffffffffffffffffff168152602001908152602001600020819055503373ffffffffffffffffffffffffffffffffffffffff166108fc829081150290604051600060405180830381858888f1935050505015801561022a573d6000803e3d6000fd5b5050565b60025447101561023d57600080fd5b60015442101561024c57600080fd5b60008054906101000a900473ffffffffffffffffffffffffffffffffffffffff1673ffffffffffffffffffffffffffffffffffffffff163373ffffffffffffffffffffffffffffffffffffffff16146102a457600080fd5b3373ffffffffffffffffffffffffffffffffffffffff166108fc479081150290604051600060405180830381858888f193505050501580156102ea573d6000803e3d6000fd5b50565b60036020528060005260406000206000915090505481565b6000813590506103148161046c565b92915050565b60008135905061032981610483565b92915050565b60006020828403121561034157600080fd5b600061034f84828501610305565b91505092915050565b60006020828403121561036a57600080fd5b60006103788482850161031a565b91505092915050565b61038a81610433565b82525050565b60006020820190506103a56000830184610381565b92915050565b60006103b682610433565b91506103c183610433565b9250827fffffffffffffffffffffffffffffffffffffffffffffffffffffffffffffffff038211156103f6576103f561043d565b5b828201905092915050565b600061040c82610413565b9050919050565b600073ffffffffffffffffffffffffffffffffffffffff82169050919050565b6000819050919050565b7f4e487b7100000000000000000000000000000000000000000000000000000000600052601160045260246000fd5b61047581610401565b811461048057600080fd5b50565b61048c81610433565b811461049757600080fd5b5056fea26469706673582212209b28efd11b5c538634290eddf7f199f39d6b843eca508130669e563b3358f3db64736f6c63430008000033",
  "linkReferences": {},
  "deployedLinkReferences": {}
}